{
  "_format": "hh-sol-artifact-1",
  "contractName": "Verifier",
  "sourceName": "src/verifiers/statetransition_vkey.sol",
  "abi": [
    {
      "inputs": [],
      "name": "CommitmentInvalid",
      "type": "error"
    },
    {
      "inputs": [],
      "name": "ProofInvalid",
      "type": "error"
    },
    {
      "inputs": [],
      "name": "PublicInputNotInField",
      "type": "error"
    },
    {
      "inputs": [
        {
          "internalType": "uint256[8]",
          "name": "proof",
          "type": "uint256[8]"
        },
        {
          "internalType": "uint256[2]",
          "name": "commitments",
          "type": "uint256[2]"
        },
        {
          "internalType": "uint256[2]",
          "name": "commitmentPok",
          "type": "uint256[2]"
        }
      ],
      "name": "compressProof",
      "outputs": [
        {
          "internalType": "uint256[4]",
          "name": "compressed",
          "type": "uint256[4]"
        },
        {
          "internalType": "uint256[1]",
          "name": "compressedCommitments",
          "type": "uint256[1]"
        },
        {
          "internalType": "uint256",
          "name": "compressedCommitmentPok",
          "type": "uint256"
        }
      ],
      "stateMutability": "view",
      "type": "function"
    },
    {
      "inputs": [
        {
          "internalType": "uint256[4]",
          "name": "compressedProof",
          "type": "uint256[4]"
        },
        {
          "internalType": "uint256[1]",
          "name": "compressedCommitments",
          "type": "uint256[1]"
        },
        {
          "internalType": "uint256",
          "name": "compressedCommitmentPok",
          "type": "uint256"
        },
        {
          "internalType": "uint256[8]",
          "name": "input",
          "type": "uint256[8]"
        }
      ],
      "name": "verifyCompressedProof",
      "outputs": [],
      "stateMutability": "view",
      "type": "function"
    },
    {
      "inputs": [
        {
          "internalType": "uint256[8]",
          "name": "proof",
          "type": "uint256[8]"
        },
        {
          "internalType": "uint256[2]",
          "name": "commitments",
          "type": "uint256[2]"
        },
        {
          "internalType": "uint256[2]",
          "name": "commitmentPok",
          "type": "uint256[2]"
        },
        {
          "internalType": "uint256[8]",
          "name": "input",
          "type": "uint256[8]"
        }
      ],
      "name": "verifyProof",
      "outputs": [],
      "stateMutability": "view",
      "type": "function"
    }
  ],
  "bytecode": "0x60808060405234601557611ae4908161001a8239f35b5f80fdfe60806040526004361015610011575f80fd5b5f3560e01c80639ed57f3214610b24578063b1c3a00e14610a135763e2dd9f471461003a575f80fd5b34610a0f576101c0366003190112610a0f5736608411610a0f573660a411610a0f57366101c411610a0f57604051602061007481836113a6565b80368337604080519061008781836113a6565b803683376103009381519261009c86856113a6565b853685376100ab6084356116eb565b8683015281526100bc60a4356116eb565b905f516020611a8f5f395f51905f5285516100d787826113a6565b6001815288610104818301601f198a01368237378451906101168a61010881890151938b51948593840196876113dc565b03601f1981018352826113a6565b5190200684528251865286830151878701527f0856b03aa79e9e4ec658f5af49ffa612e3df3dcea4e4d41c06eb44c2eefd004a858701527f1e2718d538be4cf803c5ed61130f7de20df1e212b37ed88d46d1d83e6c83ca5460608701527f0b734553b5841f36db231aae57992f7ce483501c51dd2df5b77932e4e3c7336060808701527f08980df88eb5637771cb97af8107ed9dbf74933cfd375e907dc54d7a8c53aff060a087015260c086015260e08501527f2e2e685e2e7730fad9d14dbb4cea49fe57db5a55e0e87515692cafc02775f2776101008501527f0c973462094c0f9c24421d584b7b954dd8995fc2a6c83e91d6dc71bdbc82dd736101208501527f207797dc1b08406237b195518708899476373ae06c5d6695c8421d063cf8fd786101408501527f1e01a43cf2c6b7efe7e20c455529756462adefab298728e47c07900971df8468610160850152825185816101808760085afa90511615610a005784906102866004356116eb565b610297602495929535604435611756565b92919093896102a76064356116eb565b9890977f0f702426b25a4d50b5bef6fd067b04a65ada1dc489e6d5e000233fbef16434d183519b8c937f0ae6daaff0987d86d690303c44d9a23dbc14c227918ba46adb07a2b3d6ab739285527f049e146d8f9238df312f0774a46c6a8859f043f6ce37fa21c3516f06dd58ac2d828601528051868601520151606084019081527f1b7e267e9e61ed04b9dc95bf258bd8cbc829de59a32aa9c097e2b9f84a96a259858560808160065afa957f0b352bc85d59bda652eae0bf7142aeed30d76d8c1284a75178776b221c71f63c818701527f2fd519ba6e166725fcb79f17dbb86fde70d8889e9237fcd44a5c0479fe16340b8352600160c4356080880198818a525f516020611a8f5f395f51905f5284808b016060828d0160075afa92101616828860808160065afa16167f078fb0f6e989f20ee07ca9b7c9d1e93f2d41e8d25df62f909c1de987f0d3eb6f828801527f2189a67c0b9ad9bff685db5c5ae70c0243390a51b68140c83fa77a31f039e6ed845260e435908189525f516020611a8f5f395f51905f5283808a016060828c0160075afa92101616818760808160065afa167f0c5e3ba469597253efbccc3d955ae2503a87db13272193baba97d8a557c64143828801527f121529669ab060700ef7cfbb502be15a0fc2c2d892a75d804aaa438e2e6bfd21845261010435908189525f516020611a8f5f395f51905f5283808a016060828c0160075afa92101616818760808160065afa167f0507343da2cb52fa3025734f1733e000ea7d5f9f614c8f42c24f5b628fc7d45d828801527f2c488ce30c6281258d3a6c74960388745e5c0dd6c9f1b92d4244a0253df153ce845261012435908189525f516020611a8f5f395f51905f5283808a016060828c0160075afa92101616818760808160065afa167f1dfbae010c4127e48d7a52f4df3023c0580f09a28dd932406723d3ae9dae54f3828801527f2a7e8d2a82d318b28137be786b519c1f4ba992c14d6e7f9b9e9d278d097944b7845261014435908189525f516020611a8f5f395f51905f5283808a016060828c0160075afa92101616818760808160065afa167f0ab3710e2389a692138bb7f46a4bf07e758e43662af692b6a43ea1c8d883901f828801527f2fd64a3766609a5289f8352e678aedcbe8d5529b8a72dfba4342b47928e360f2845261016435908189525f516020611a8f5f395f51905f5283808a016060828c0160075afa92101616818760808160065afa167f25a610350e6f0a82cae2e030cbb6568f9bbd3630255fb25c68f12fd07ed16aaa828801527f140487c6dafd6f955ee444095d39bd00f68758e13298a435a6d54f9388c32f76845261018435908189525f516020611a8f5f395f51905f5283808a016060828c0160075afa92101616818760808160065afa167f01bca01f5530ab0e08979c4590eb5ba9184ce276efe91ccd351be196b89d2a0c828801527f0ae6ad0ca6c7d2cd4ca561c1a6ac1021290ee1b5ec200f22989cdffece602a5384526101a435908189525f516020611a8f5f395f51905f5283808a016060828c0160075afa92101616818760808160065afa1695015252518092525f516020611a8f5f395f51905f528c8b606082808301920160075afa921016168a8960808160065afa16988c895199015199156109f1578b528b8b0152888a01526060890152608088015260a087015260c086015260e08501527f26ebcacafb969add63bbc81cc5daf8ff7f92b14bf6ffcb8670ba11c36f4ccf0b6101008501527f233a318171085e0ec234694831f7e283a0ddf1439220b22a8adcc759e7b45cff6101208501527f2ac924c4a7b818b5a0e87adb47c30851e9fcf3c19f33e1a2df552894dcadc9b86101408501527f160928aec7fb485869a3ca774ae5129d68d90109e963fef3783ba23f8bfd689c6101608501527f0b680d5a513d85d0e6dd96e50d1f808643ba703ed77a55b80ce168e012aad1a86101808501527f272a6bcd73c587569db14184b0e2df30c08f5fb425bf23af96310261f70e5d316101a08501527f15f6c01664a4ec67084d5b24dc1a2f095995de316f2e1e1e00c47ead4071e2da6101c08501527f24ffe509328ecc39ed2711ffc86276a3aa1faa2cdcb81eaae0c94fbf52880e5c6101e08501527f0a5e932ffee9aaecec794dc8b93051c9ac9c459a45f5b01dad33bf85006652526102008501527f04d140c26a93bfe330553664c9a02a0019a2f110c1c6bef041ea4c0972f1c3e86102208501526102408401526102608301527f29022250f985b7125255b868ff6b4b0812e0d5073477bfb734c734262450df626102808301527f2122cd06e95e715a93bbeedf179e1fa17a0830d5b0c79526860a68aee81a81e26102a08301527f016137484a25bbc2e63a659f29b7bb005d29862f9d3ed9b4e57779635ea3dc046102c08301527f1a91c395dd9ba3f8f713f64bc284977921f47013db2c2ff6db2cea813330a3a46102e0830152519283916109bd84846113a6565b8336843760085afa159081156109e4575b506109d557005b631ff3747d60e21b5f5260045ffd5b600191505114155f6109ce565b63a54f8e2760e01b5f5260045ffd5b6351d49ff760e11b5f5260045ffd5b5f80fd5b34610a0f57610180366003190112610a0f573661010411610a0f573661014411610a0f573661018411610a0f57604051610a4e6080826113a6565b6080368237604051906020610a6381846113a6565b80368437610a75602435600435611416565b8252610a8b60843560a4356044356064356114b7565b828401526040830152610aa260e43560c435611416565b6060830152610ab76101243561010435611416565b8352610ac96101643561014435611416565b9060405192835f905b60048210610b0e575050506080830193905f945b60018610610af95760c0858560a0820152f35b81806001928551815201930195019491610ae6565b8251815291830191600191909101908301610ad2565b34610a0f57610280366003190112610a0f573661010411610a0f573661014411610a0f573661018411610a0f573661028411610a0f576040516020610b6981836113a6565b803683376040915f516020611a8f5f395f51905f528351610b8a85826113a6565b60018152836101c4818301601f198801368237378451610bb981610108878201946101243561010435876113dc565b51902006815282518361010482377f0856b03aa79e9e4ec658f5af49ffa612e3df3dcea4e4d41c06eb44c2eefd004a848201527f1e2718d538be4cf803c5ed61130f7de20df1e212b37ed88d46d1d83e6c83ca5460608201527f0b734553b5841f36db231aae57992f7ce483501c51dd2df5b77932e4e3c7336060808201527f08980df88eb5637771cb97af8107ed9dbf74933cfd375e907dc54d7a8c53aff060a08201528361014460c08301377f2e2e685e2e7730fad9d14dbb4cea49fe57db5a55e0e87515692cafc02775f2776101008201527f0c973462094c0f9c24421d584b7b954dd8995fc2a6c83e91d6dc71bdbc82dd736101208201527f207797dc1b08406237b195518708899476373ae06c5d6695c8421d063cf8fd786101408201527f1e01a43cf2c6b7efe7e20c455529756462adefab298728e47c07900971df846861016082015282816101808160085afa90511615610a0057825192610d2281856113a6565b61010483855b6101448310611396575050508051918183017f0ae6daaff0987d86d690303c44d9a23dbc14c227918ba46adb07a2b3d6ab739284525f516020611a8f5f395f51905f528386808701987f049e146d8f9238df312f0774a46c6a8859f043f6ce37fa21c3516f06dd58ac2d8a528051855201519260608701938452818760808160065afa947f0b352bc85d59bda652eae0bf7142aeed30d76d8c1284a75178776b221c71f63c82527f2fd519ba6e166725fcb79f17dbb86fde70d8889e9237fcd44a5c0479fe16340b85527f0f702426b25a4d50b5bef6fd067b04a65ada1dc489e6d5e000233fbef16434d160016101843560808b0198818a5287878760608160075afa92101616858b60808160065afa16167f078fb0f6e989f20ee07ca9b7c9d1e93f2d41e8d25df62f909c1de987f0d3eb6f84527f2189a67c0b9ad9bff685db5c5ae70c0243390a51b68140c83fa77a31f039e6ed87526101a4359081895286868660608160075afa92101616848a60808160065afa167f0c5e3ba469597253efbccc3d955ae2503a87db13272193baba97d8a557c6414384527f121529669ab060700ef7cfbb502be15a0fc2c2d892a75d804aaa438e2e6bfd2187526101c4359081895286868660608160075afa92101616848a60808160065afa167f0507343da2cb52fa3025734f1733e000ea7d5f9f614c8f42c24f5b628fc7d45d84527f2c488ce30c6281258d3a6c74960388745e5c0dd6c9f1b92d4244a0253df153ce87526101e4359081895286868660608160075afa92101616848a60808160065afa167f1dfbae010c4127e48d7a52f4df3023c0580f09a28dd932406723d3ae9dae54f384527f2a7e8d2a82d318b28137be786b519c1f4ba992c14d6e7f9b9e9d278d097944b78752610204359081895286868660608160075afa92101616848a60808160065afa167f0ab3710e2389a692138bb7f46a4bf07e758e43662af692b6a43ea1c8d883901f84527f2fd64a3766609a5289f8352e678aedcbe8d5529b8a72dfba4342b47928e360f28752610224359081895286868660608160075afa92101616848a60808160065afa167f25a610350e6f0a82cae2e030cbb6568f9bbd3630255fb25c68f12fd07ed16aaa84527f140487c6dafd6f955ee444095d39bd00f68758e13298a435a6d54f9388c32f768752610244359081895286868660608160075afa92101616848a60808160065afa167f01bca01f5530ab0e08979c4590eb5ba9184ce276efe91ccd351be196b89d2a0c84527f0ae6ad0ca6c7d2cd4ca561c1a6ac1021290ee1b5ec200f22989cdffece602a538752610264359081895286868660608160075afa92101616848a60808160065afa16957f1b7e267e9e61ed04b9dc95bf258bd8cbc829de59a32aa9c097e2b9f84a96a2598452525180955260608160075afa92101616818360808160065afa169151935191156109f1575192610100600485377f26ebcacafb969add63bbc81cc5daf8ff7f92b14bf6ffcb8670ba11c36f4ccf0b6101008501527f233a318171085e0ec234694831f7e283a0ddf1439220b22a8adcc759e7b45cff6101208501527f2ac924c4a7b818b5a0e87adb47c30851e9fcf3c19f33e1a2df552894dcadc9b86101408501527f160928aec7fb485869a3ca774ae5129d68d90109e963fef3783ba23f8bfd689c6101608501527f0b680d5a513d85d0e6dd96e50d1f808643ba703ed77a55b80ce168e012aad1a86101808501527f272a6bcd73c587569db14184b0e2df30c08f5fb425bf23af96310261f70e5d316101a08501527f15f6c01664a4ec67084d5b24dc1a2f095995de316f2e1e1e00c47ead4071e2da6101c08501527f24ffe509328ecc39ed2711ffc86276a3aa1faa2cdcb81eaae0c94fbf52880e5c6101e08501527f0a5e932ffee9aaecec794dc8b93051c9ac9c459a45f5b01dad33bf85006652526102008501527f04d140c26a93bfe330553664c9a02a0019a2f110c1c6bef041ea4c0972f1c3e86102208501526102408401526102608301527f29022250f985b7125255b868ff6b4b0812e0d5073477bfb734c734262450df626102808301527f2122cd06e95e715a93bbeedf179e1fa17a0830d5b0c79526860a68aee81a81e26102a08301527f016137484a25bbc2e63a659f29b7bb005d29862f9d3ed9b4e57779635ea3dc046102c08301527f1a91c395dd9ba3f8f713f64bc284977921f47013db2c2ff6db2cea813330a3a46102e0830152816103008160085afa905116156109d557005b8235815291810191859101610d28565b90601f8019910116810190811067ffffffffffffffff8211176113c857604052565b634e487b7160e01b5f52604160045260245ffd5b9091604092825260208201520160208251919201905f5b8181106114005750505090565b82518452602093840193909201916001016113f3565b905f516020611a6f5f395f51905f5282108015906114a0575b6109d557811580611498575b6114925761145f5f516020611a6f5f395f51905f526003818581818009090861188f565b81810361146e57505060011b90565b5f516020611a6f5f395f51905f52809106810306145f146109d557600190811b1790565b50505f90565b50801561143b565b505f516020611a6f5f395f51905f5281101561142f565b919093925f516020611a6f5f395f51905f5283108015906116d4575b80156116bd575b80156116a6575b6109d557808286851717171561169b579082916115fe5f516020611a6f5f395f51905f5280808080888180808f9d7f30644e72e131a029b85045b68181585d97816a916871ca8d3c208c16d87cfd448f839290839109099d8e0981848181800909087f2b149d40ceb8aaae81be18991be06ac3b5b4c5e559dbefa33267e6dc24a138e5089a09818c8181800909087f2fcd3ac2a640a154eb23960892a85a68f031ca0c8344b23a577dcf1052b9e7750806810306945f516020611a6f5f395f51905f527f183227397098d014dc2822db40c0ac2ecbc0b548b438e5469e10460b6c3e7ea4816115d881808b8009818780090861188f565b8408095f516020611a6f5f395f51905f526115f282611a06565b800914159586916118b2565b929080821480611692575b156116305750505050905f146116285760ff60025b169060021b179190565b60ff5f61161e565b5f516020611a6f5f395f51905f52809106810306149182611673575b5050156109d5576001911561166b5760ff60025b169060021b17179190565b60ff5f611660565b5f516020611a6f5f395f51905f52919250819006810306145f8061164c565b50838314611609565b50505090505f905f90565b505f516020611a6f5f395f51905f528110156114e1565b505f516020611a6f5f395f51905f528210156114da565b505f516020611a6f5f395f51905f528510156114d3565b801561174f578060011c915f516020611a6f5f395f51905f528310156109d55760018061172e5f516020611a6f5f395f51905f526003818881818009090861188f565b93161461173757565b905f516020611a6f5f395f51905f5280910681030690565b505f905f90565b801580611887575b61187b578060021c92825f516020611a6f5f395f51905f528510801590611864575b6109d55784815f516020611a6f5f395f51905f5280808080808080807f30644e72e131a029b85045b68181585d97816a916871ca8d3c208c16d87cfd448161182e9d8d0909998a0981898181800909087f2fcd3ac2a640a154eb23960892a85a68f031ca0c8344b23a577dcf1052b9e7750806810306936002808a16149509818a8181800909087f2b149d40ceb8aaae81be18991be06ac3b5b4c5e559dbefa33267e6dc24a138e5086118b2565b80929160018082961614611840575050565b5f516020611a6f5f395f51905f528093945080929550809106810306930681030690565b505f516020611a6f5f395f51905f52811015611780565b50505f905f905f905f90565b50811561175e565b9061189982611a06565b915f516020611a6f5f395f51905f52838009036109d557565b915f516020611a6f5f395f51905f527f183227397098d014dc2822db40c0ac2ecbc0b548b438e5469e10460b6c3e7ea48161190a939694966118fc82808a8009818a80090861188f565b906119fa575b86080961188f565b925f516020611a6f5f395f51905f52600285096040519060208252602080830152602060408301528060608301527f30644e72e131a029b85045b68181585d97816a916871ca8d3c208c16d87cfd4560808301525f516020611a6f5f395f51905f5260a083015260208260c08160055afa915191156109d5575f516020611a6f5f395f51905f528260019209036109d5575f516020611a6f5f395f51905f52908209925f516020611a6f5f395f51905f5280808087800906810306818780090814908115916119db575b506109d557565b90505f516020611a6f5f395f51905f528084860960020914155f6119d4565b81809106810306611902565b9060405191602083526020808401526020604084015260608301527f0c19139cb84c680a6e14116da060561765e05aa45a1c72a34f082305b61f3f5260808301525f516020611a6f5f395f51905f5260a083015260208260c08160055afa915191156109d55756fe30644e72e131a029b85045b68181585d97816a916871ca8d3c208c16d87cfd4730644e72e131a029b85045b68181585d2833e84879b9709143e1f593f0000001a2646970667358221220fb2e9c306718d6b87ab56b3db369d4452528db843a1c6c3a5202d9cf5b45ae5064736f6c634300081c0033",
  "linkReferences": {},
  "deployedLinkReferences": {}
}