{
  "_format": "hh-sol-artifact-1",
  "contractName": "StateRootLib",
  "sourceName": "src/libraries/StateRootLib.sol",
  "abi": [
    {
      "inputs": [],
      "name": "BallotModeGroupSizeExceedsNumFields",
      "type": "error"
    },
    {
      "inputs": [],
      "name": "BallotModeMaxValueSumTooLarge",
      "type": "error"
    },
    {
      "inputs": [],
      "name": "BallotModeMaxValueTooLarge",
      "type": "error"
    },
    {
      "inputs": [],
      "name": "BallotModeMinValueSumTooLarge",
      "type": "error"
    },
    {
      "inputs": [],
      "name": "BallotModeMinValueTooLarge",
      "type": "error"
    },
    {
      "inputs": [
        {
          "internalType": "bytes31",
          "name": "processId",
          "type": "bytes31"
        },
        {
          "internalType": "enum DAVINCITypes.CensusOrigin",
          "name": "censusOrigin",
          "type": "DAVINCITypes.CensusOrigin"
        },
        {
          "components": [
            {
              "internalType": "bool",
              "name": "costFromWeight",
              "type": "bool"
            },
            {
              "internalType": "bool",
              "name": "uniqueValues",
              "type": "bool"
            },
            {
              "internalType": "uint8",
              "name": "numFields",
              "type": "uint8"
            },
            {
              "internalType": "uint8",
              "name": "groupSize",
              "type": "uint8"
            },
            {
              "internalType": "uint8",
              "name": "costExponent",
              "type": "uint8"
            },
            {
              "internalType": "uint256",
              "name": "maxValue",
              "type": "uint256"
            },
            {
              "internalType": "uint256",
              "name": "minValue",
              "type": "uint256"
            },
            {
              "internalType": "uint256",
              "name": "maxValueSum",
              "type": "uint256"
            },
            {
              "internalType": "uint256",
              "name": "minValueSum",
              "type": "uint256"
            }
          ],
          "internalType": "struct DAVINCITypes.BallotMode",
          "name": "ballotMode",
          "type": "tuple"
        },
        {
          "components": [
            {
              "internalType": "uint256",
              "name": "x",
              "type": "uint256"
            },
            {
              "internalType": "uint256",
              "name": "y",
              "type": "uint256"
            }
          ],
          "internalType": "struct DAVINCITypes.EncryptionKey",
          "name": "encryptionKey",
          "type": "tuple"
        }
      ],
      "name": "computeStateRoot",
      "outputs": [
        {
          "internalType": "uint256",
          "name": "",
          "type": "uint256"
        }
      ],
      "stateMutability": "pure",
      "type": "function"
    },
    {
      "inputs": [
        {
          "internalType": "uint256",
          "name": "expectedRoot",
          "type": "uint256"
        },
        {
          "internalType": "bytes31",
          "name": "processId",
          "type": "bytes31"
        },
        {
          "internalType": "enum DAVINCITypes.CensusOrigin",
          "name": "censusOrigin",
          "type": "DAVINCITypes.CensusOrigin"
        },
        {
          "components": [
            {
              "internalType": "bool",
              "name": "costFromWeight",
              "type": "bool"
            },
            {
              "internalType": "bool",
              "name": "uniqueValues",
              "type": "bool"
            },
            {
              "internalType": "uint8",
              "name": "numFields",
              "type": "uint8"
            },
            {
              "internalType": "uint8",
              "name": "groupSize",
              "type": "uint8"
            },
            {
              "internalType": "uint8",
              "name": "costExponent",
              "type": "uint8"
            },
            {
              "internalType": "uint256",
              "name": "maxValue",
              "type": "uint256"
            },
            {
              "internalType": "uint256",
              "name": "minValue",
              "type": "uint256"
            },
            {
              "internalType": "uint256",
              "name": "maxValueSum",
              "type": "uint256"
            },
            {
              "internalType": "uint256",
              "name": "minValueSum",
              "type": "uint256"
            }
          ],
          "internalType": "struct DAVINCITypes.BallotMode",
          "name": "ballotMode",
          "type": "tuple"
        },
        {
          "components": [
            {
              "internalType": "uint256",
              "name": "x",
              "type": "uint256"
            },
            {
              "internalType": "uint256",
              "name": "y",
              "type": "uint256"
            }
          ],
          "internalType": "struct DAVINCITypes.EncryptionKey",
          "name": "encryptionKey",
          "type": "tuple"
        }
      ],
      "name": "verifyStateRoot",
      "outputs": [
        {
          "internalType": "bool",
          "name": "",
          "type": "bool"
        }
      ],
      "stateMutability": "pure",
      "type": "function"
    }
  ],
  "bytecode": "0x60808060405234601957610d91908161001e823930815050f35b5f80fdfe60806040526004361015610011575f80fd5b5f3560e01c80632089f1761461076a57635d3f706a1461002f575f80fd5b6101c03660031901126105005760243560ff198116810361050057604435600581101561050057610120366063190112610500576040366101831901126105005760c4359160ff8316928381036105005760a43560ff81169485820361050057851061075b575060843580151581036105005715610754576001915b6064358015158103610500571561074d576001905b60e43560ff81168103610500576101043565ffffffffffff811161073e57610124359065ffffffffffff821161072f576101443592677fffffffffffffff8411610720576101643597677fffffffffffffff89116107115761016b9773__$75f79a42d9bcbdbb69ad79ebd80f556f39$__9b60208d6040519061014282610c93565b6101843582526101a4358383015260405180809e8194632b0aac7f60e11b835260048301610d01565b03915af4998a1561050c575f9a6106d9575b506101d498999a602073__$fc5a2451f3e054f75c2faf9b3818033d8b$__99604051906101a982610cc3565b5f825260081c8282015260016040820152604051809c81926320cf0a3760e01b835260048301610d2e565b03818c5af4998a1561050c575f9a61068e575b509260029694926102689b9261ff0062ff00006301fe00006303fc000060209d9b996040519d8e61021781610cc3565b5260b91b9b607a1b9a604a1b99601a1b9860121b169660111b169460101b169260081b1617171717171717178282015260016040820152604051809581926320cf0a3760e01b835260048301610d2e565b0381845af492831561050c575f93610657575b5060206102b8946040519061028f82610cc3565b600382528282015260016040820152604051809681926320cf0a3760e01b835260048301610d2e565b0381845af493841561050c575f94610621575b5061030a94602091604051916102e083610cc3565b60068352838301526001604083015260405180809881946320cf0a3760e01b835260048301610d2e565b03915af493841561050c575f946105ec575b50926020610372946040519061033182610c93565b81527f1f72c52b6e5dedca4f99ecfa24f2776732431e8d544e14c6f78f5042727c46578282015260405180968192632b0aac7f60e11b835260048301610d01565b0381885af493841561050c575f946105b6575b506103ba916020916040519161039a83610c93565b82528282015260405180938192632b0aac7f60e11b835260048301610d01565b0381875af490811561050c575f91610582575b5061040292602091604051916103e283610c93565b82528282015260405180948192632b0aac7f60e11b835260048301610d01565b0381865af491821561050c575f9261054d575b50602061046a916040519061042982610c93565b7f2b853c511fba705a6030f80ce83d6ee8cbf4a1273724368728c11682eae4c51a82528282015260405180938192632b0aac7f60e11b835260048301610d01565b0381865af490811561050c575f91610517575b50906104b4926020926040519261049384610c93565b8352838301526040518080958194632b0aac7f60e11b835260048301610d01565b03915af4801561050c575f906104d5575b6040516004359091148152602090f35b506020813d602011610504575b816104ef60209383610cdf565b8101031261050057602090516104c5565b5f80fd5b3d91506104e2565b6040513d5f823e3d90fd5b9190506020823d602011610545575b8161053360209383610cdf565b810103126105005790516104b461047d565b3d9150610526565b9091506020813d60201161057a575b8161056960209383610cdf565b810103126105005751906020610415565b3d915061055c565b90506020813d6020116105ae575b8161059d60209383610cdf565b8101031261050057516104026103cd565b3d9150610590565b9093506020813d6020116105e4575b816105d260209383610cdf565b810103126105005751926103ba610385565b3d91506105c5565b93506020843d602011610619575b8161060760209383610cdf565b8101031261050057925192602061031c565b3d91506105fa565b9093506020813d60201161064f575b8161063d60209383610cdf565b8101031261050057519261030a6102cb565b3d9150610630565b9392506020843d602011610686575b8161067360209383610cdf565b810103126105005792519192602061027b565b3d9150610666565b9694929a919795939099506020873d6020116106d1575b816106b260209383610cdf565b81010312610500579551909990989496939592949193909160026101e7565b3d91506106a5565b9899506020893d602011610709575b816106f560209383610cdf565b81010312610500576101d49851999861017d565b3d91506106e8565b63dd6f54df60e01b5f5260045ffd5b63271fb80560e01b5f5260045ffd5b63871a7fa360e01b5f5260045ffd5b63481eb79f60e01b5f5260045ffd5b5f906100c0565b5f916100ab565b633cf60ff760e21b5f5260045ffd5b6101a03660031901126105005760043560ff198116810361050057602435600581101561050057610120366043190112610500576040366101631901126105005760a4359160ff8316928381036105005760843560ff81169485820361050057851061075b575060643580151581036105005715610c8c576001915b60443580151581036105005715610c85576001905b60c43560ff811681036105005760e43565ffffffffffff811161073e57610104359065ffffffffffff821161072f576101243592677fffffffffffffff8411610720576101443597677fffffffffffffff8911610711576108a59773__$75f79a42d9bcbdbb69ad79ebd80f556f39$__9b60208d6040519061087c82610c93565b610164358252610184358383015260405180809e8194632b0aac7f60e11b835260048301610d01565b03915af4998a1561050c575f9a610c4d575b506108e398999a602073__$fc5a2451f3e054f75c2faf9b3818033d8b$__99604051906101a982610cc3565b03818c5af4998a1561050c575f9a610c02575b509260029694926109269b9261ff0062ff00006301fe00006303fc000060209d9b996040519d8e61021781610cc3565b0381845af492831561050c575f93610bcb575b50602061094d946040519061028f82610cc3565b0381845af493841561050c575f94610b95575b5061097594602091604051916102e083610cc3565b03915af493841561050c575f94610b60575b5092602061099c946040519061033182610c93565b0381885af493841561050c575f94610b2a575b506109c4916020916040519161039a83610c93565b0381875af490811561050c575f91610af6575b506109ec92602091604051916103e283610c93565b0381865af491821561050c575f92610ac1575b506020610a13916040519061042982610c93565b0381865af490811561050c575f91610a8b575b5090610a3c926020926040519261049384610c93565b03915af4801561050c575f90610a58575b604051908152602090f35b506020813d602011610a83575b81610a7260209383610cdf565b810103126105005760209051610a4d565b3d9150610a65565b9190506020823d602011610ab9575b81610aa760209383610cdf565b81010312610500579051610a3c610a26565b3d9150610a9a565b9091506020813d602011610aee575b81610add60209383610cdf565b8101031261050057519060206109ff565b3d9150610ad0565b90506020813d602011610b22575b81610b1160209383610cdf565b8101031261050057516109ec6109d7565b3d9150610b04565b9093506020813d602011610b58575b81610b4660209383610cdf565b810103126105005751926109c46109af565b3d9150610b39565b93506020843d602011610b8d575b81610b7b60209383610cdf565b81010312610500579251926020610987565b3d9150610b6e565b9093506020813d602011610bc3575b81610bb160209383610cdf565b81010312610500575192610975610960565b3d9150610ba4565b9392506020843d602011610bfa575b81610be760209383610cdf565b8101031261050057925191926020610939565b3d9150610bda565b9694929a919795939099506020873d602011610c45575b81610c2660209383610cdf565b81010312610500579551909990989496939592949193909160026108f6565b3d9150610c19565b9899506020893d602011610c7d575b81610c6960209383610cdf565b81010312610500576108e3985199986108b7565b3d9150610c5c565b5f906107fb565b5f916107e6565b6040810190811067ffffffffffffffff821117610caf57604052565b634e487b7160e01b5f52604160045260245ffd5b6060810190811067ffffffffffffffff821117610caf57604052565b90601f8019910116810190811067ffffffffffffffff821117610caf57604052565b919060408301925f905b60028210610d1857505050565b6020806001928551815201930191019091610d0b565b919060608301925f905b60038210610d4557505050565b6020806001928551815201930191019091610d3856fea2646970667358221220b076dee2f9d4e1e3311260382888e32ffd4215d534052e00878e45697788d17c64736f6c634300081c0033",
  "linkReferences": {
    "poseidon-solidity/PoseidonT3.sol": {
      "PoseidonT3": [
        {
          "length": 20,
          "start": 316
        },
        {
          "length": 20,
          "start": 2166
        }
      ]
    },
    "poseidon-solidity/PoseidonT4.sol": {
      "PoseidonT4": [
        {
          "length": 20,
          "start": 422
        },
        {
          "length": 20,
          "start": 2272
        }
      ]
    }
  },
  "deployedLinkReferences": {
    "poseidon-solidity/PoseidonT3.sol": {
      "PoseidonT3": [
        {
          "length": 20,
          "start": 286
        },
        {
          "length": 20,
          "start": 2136
        }
      ]
    },
    "poseidon-solidity/PoseidonT4.sol": {
      "PoseidonT4": [
        {
          "length": 20,
          "start": 392
        },
        {
          "length": 20,
          "start": 2242
        }
      ]
    }
  }
}