{
  "_format": "hh-sol-artifact-1",
  "contractName": "Verifier",
  "sourceName": "src/verifiers/resultsverifier_vkey.sol",
  "abi": [
    {
      "inputs": [],
      "name": "CommitmentInvalid",
      "type": "error"
    },
    {
      "inputs": [],
      "name": "ProofInvalid",
      "type": "error"
    },
    {
      "inputs": [],
      "name": "PublicInputNotInField",
      "type": "error"
    },
    {
      "inputs": [
        {
          "internalType": "uint256[8]",
          "name": "proof",
          "type": "uint256[8]"
        },
        {
          "internalType": "uint256[2]",
          "name": "commitments",
          "type": "uint256[2]"
        },
        {
          "internalType": "uint256[2]",
          "name": "commitmentPok",
          "type": "uint256[2]"
        }
      ],
      "name": "compressProof",
      "outputs": [
        {
          "internalType": "uint256[4]",
          "name": "compressed",
          "type": "uint256[4]"
        },
        {
          "internalType": "uint256[1]",
          "name": "compressedCommitments",
          "type": "uint256[1]"
        },
        {
          "internalType": "uint256",
          "name": "compressedCommitmentPok",
          "type": "uint256"
        }
      ],
      "stateMutability": "view",
      "type": "function"
    },
    {
      "inputs": [
        {
          "internalType": "uint256[4]",
          "name": "compressedProof",
          "type": "uint256[4]"
        },
        {
          "internalType": "uint256[1]",
          "name": "compressedCommitments",
          "type": "uint256[1]"
        },
        {
          "internalType": "uint256",
          "name": "compressedCommitmentPok",
          "type": "uint256"
        },
        {
          "internalType": "uint256[9]",
          "name": "input",
          "type": "uint256[9]"
        }
      ],
      "name": "verifyCompressedProof",
      "outputs": [],
      "stateMutability": "view",
      "type": "function"
    },
    {
      "inputs": [
        {
          "internalType": "uint256[8]",
          "name": "proof",
          "type": "uint256[8]"
        },
        {
          "internalType": "uint256[2]",
          "name": "commitments",
          "type": "uint256[2]"
        },
        {
          "internalType": "uint256[2]",
          "name": "commitmentPok",
          "type": "uint256[2]"
        },
        {
          "internalType": "uint256[9]",
          "name": "input",
          "type": "uint256[9]"
        }
      ],
      "name": "verifyProof",
      "outputs": [],
      "stateMutability": "view",
      "type": "function"
    }
  ],
  "bytecode": "0x60808060405234601557611b80908161001a8239f35b5f80fdfe60806040526004361015610011575f80fd5b5f3560e01c80635d26278e14610a5557806360e583461461014f5763b1c3a00e1461003a575f80fd5b3461014b5761018036600319011261014b57366101041161014b57366101441161014b57366101841161014b57604051610075608082611444565b608036823760405190602061008a8184611444565b8036843761009c602435600435611656565b82526100b260843560a4356044356064356116f7565b8284015260408301526100c960e43560c435611656565b60608301526100de6101243561010435611656565b83526100f06101643561014435611656565b9060405192835f905b60048210610135575050506080830193905f945b600186106101205760c0858560a0820152f35b8180600192855181520193019501949161010d565b82518152918301916001919091019083016100f9565b5f80fd5b3461014b576102a036600319011261014b57366101041161014b57366101441161014b57366101841161014b57366102a41161014b5760405160206101948183611444565b803683375f516020611b2b5f395f51905f52604051828101906101d0816101c261012435610104358661147a565b03601f198101835282611444565b519020068252604051604061010482377e5e05be57e171c3a347db635d092b7e68c39800f835f0413afb63112ec5288760408201527f2179ccc912b796ac01bee1ad052d04c1505c90e70b148dd087152a7aec140bf560608201527f0643313911eee539d5d85553653b1aab35cc2bce090475777323511c83c92fa360808201527f28948810f3674b1a43264025dcaa55ab0ebf02f878c710924df9355e42542b2660a0820152604061014460c08301377f11c8aae23950e89df078ca38154ec65d898a2e0bcd75ce597a09ca0ff0104d246101008201527f0283e55585eeeff03dc42c3b3253765606aa7517414e3f4ab3cc2d11e13f082e6101208201527f1fbd305985e9603404e1a4fa733822c14b01f6cdb3bdb688fdbc5f1c3b1841976101408201527f0a710e3954904abb6e6b58c8b96f1df3a309cbc1bf9b355434db2b3873b8581d61016082015281816101808160085afa90511615610a465760409182519261033f8185611444565b61010483855b6101448310610a36575050508051918183017f1973319dc2c60b1809ffee7d137baa5ce915c873ecda66348811eb0b7164d05e84525f516020611b2b5f395f51905f528386808701987f10d6e7b4103ec74a51963af7965c4fb75597f1aca06be92530a2604581b9a2298a528051855201519260608701938452818760808160065afa947f0bbc6a73ea810759c14873c10055f4c99a889286bb5dc60e24310173d979bd5382527f0fb84d242b096873f6f292c35d22d14f0b1ee3390542fdbe56257f17b4f31f2b85527f1a68f8ca362c02e265c1bbc85e8b38984e087e47d0ad334389c62fbd1d0ddfde60016101843560808b0198818a5287878760608160075afa92101616858b60808160065afa16167f053ef158f34cac51dd997ad04d4710f76b07b4b4cf70e1637d58164f6b47e06f84527f06b43fddfa8cb29417f9109da64c1875b8b2503a539e5a2ee1381ff40359228f87526101a4359081895286868660608160075afa92101616848a60808160065afa167f216331ae90f74ba87032e90005bb94715dcb9726482a80d6bc795c6be9183b1b84527f0dec6faac2bc3f692c33b0743c96257f7c7bbf60ea10f31005a7aa2d17cfac5587526101c4359081895286868660608160075afa92101616848a60808160065afa167f1647346e2176160420b49a409059225dec433eab7249bb018ad84182cbdf71ec84527f1c1f123b0faf9f3ad0e7fac0c98fe90dae5a7ff331cf73c547eda1c2ee4a2ab387526101e4359081895286868660608160075afa92101616848a60808160065afa167f22b9920dc31273977a34876de223438bb7b9cf998c2f2a20830135c5e8968bac84527f2802e5e9551b410b41c658627501988e6cdba9ee3d91a3c41554b216e1374e748752610204359081895286868660608160075afa92101616848a60808160065afa167f13e23be2d0d10d9d9a522740ff9f16ebf3a640d6457c86893c785ee69d421d1684527f0545bd05fa0164555981fa368b88770974cc5d0caab416206f9b64720391a2db8752610224359081895286868660608160075afa92101616848a60808160065afa167f24aac08ac31677a9327371e8608c59d80f436a23ce999370854664ba930f475084527f0543a83130dc1a1209f562a0e64aee11d3cd5ba73cbec42637eac197c8cea3308752610244359081895286868660608160075afa92101616848a60808160065afa167f06b312c446d4a4b093e93a0365442b9ce68ed2a3ce8f48a535d5eabb4753d3f784527e3207319db3da4e43eafc290ca1b0be5c0270532c0e626584c8c5cb31b8c5278752610264359081895286868660608160075afa92101616848a60808160065afa167f0cc107e0c46d7cc4c9748996de600cca2b69737e6b7d1c1b824b53da79188a9284527f29538badc1a6e3dc55ea28cc058864befdc57142e5bee37dc12a189aa072bf518752610284359081895286868660608160075afa92101616848a60808160065afa16957f035884d3b482d6c0fd153b085db75f70f23542758fff345c7b46a839b4126f088452525180955260608160075afa92101616818360808160065afa16915193519115610a27575192610100600485377f19e805e891035c3e515c4849adb5fc70a193fb55299ff8170f74e49dcce9c0876101008501527f10f5d2fe5800355674050513d6f9ad809fb74252fb668793e697e6a53fe62b1c6101208501527f188c60f6ffbf01fa70d95b24c80e2b3e93ef216f38130959ecfef9e9059160956101408501527f09b6742c38fd756588d401751fc56341a7b04d4eda4818cb614377aaeb5990dc6101608501527f2e06add4f4f5c8e99d198c33e68cb7e94b0eba3abf3c373da956dd06483ca6eb6101808501527f140a14898c366bcccdf13e8d60be7bb3ca08fb0f3cdab1762539618892efa9576101a08501527f14b2c0b679a7bf23f61db0ce848885b1d23bb2a20587b2f708d33817c97095246101c08501527f2560c8068242f8b26bb0917ded1a3491b359f163a15ffd74590cf51d3de9f6da6101e08501527f0982914d4f35129270478f9f66594c2d5ce0ef86762b78bcedc7e468972cdd6c6102008501527f093050fb59cbb7712fe1cd41a3fd7443cac3da58cee330cb04314be4b24b67c96102208501526102408401526102608301527f24e375ab5edde07add353aabc9bfb17724014824072d0f13c44eae1c43693a4f6102808301527f09bdd0ee79664950b6b6a5c03495fa53f1628caaf1b6ee06e5eea7372278026c6102a08301527f1e69e4e8b120f69492993e4788222fd7faf8c8796e162b91f044f828d61fd1396102c08301527f2ceb6098ad916f7b32289d408e7854ae887df3067670baa27c2611d5e19b86fc6102e0830152816103008160085afa90511615610a1857005b631ff3747d60e21b5f5260045ffd5b63a54f8e2760e01b5f5260045ffd5b8235815291810191859101610345565b6351d49ff760e11b5f5260045ffd5b3461014b576101e036600319011261014b573660841161014b573660a41161014b57366101e41161014b576040516020610a8f8183611444565b803683376040805190610aa28183611444565b8036833761030093815192610ab78685611444565b85368537610ac66084356114b2565b868301528152610ad760a4356114b2565b905f516020611b2b5f395f51905f5283516101c2610b018a87015189519283918d8301958661147a565b5190200684528251865286830151878701527e5e05be57e171c3a347db635d092b7e68c39800f835f0413afb63112ec52887858701527f2179ccc912b796ac01bee1ad052d04c1505c90e70b148dd087152a7aec140bf560608701527f0643313911eee539d5d85553653b1aab35cc2bce090475777323511c83c92fa360808701527f28948810f3674b1a43264025dcaa55ab0ebf02f878c710924df9355e42542b2660a087015260c086015260e08501527f11c8aae23950e89df078ca38154ec65d898a2e0bcd75ce597a09ca0ff0104d246101008501527f0283e55585eeeff03dc42c3b3253765606aa7517414e3f4ab3cc2d11e13f082e6101208501527f1fbd305985e9603404e1a4fa733822c14b01f6cdb3bdb688fdbc5f1c3b1841976101408501527f0a710e3954904abb6e6b58c8b96f1df3a309cbc1bf9b355434db2b3873b8581d610160850152825185816101808760085afa90511615610a46578490610c706004356114b2565b610c8160249592953560443561151d565b9291909389610c916064356114b2565b9890977f1a68f8ca362c02e265c1bbc85e8b38984e087e47d0ad334389c62fbd1d0ddfde83519b8c937f1973319dc2c60b1809ffee7d137baa5ce915c873ecda66348811eb0b7164d05e85527f10d6e7b4103ec74a51963af7965c4fb75597f1aca06be92530a2604581b9a229828601528051868601520151606084019081527f035884d3b482d6c0fd153b085db75f70f23542758fff345c7b46a839b4126f08858560808160065afa957f0bbc6a73ea810759c14873c10055f4c99a889286bb5dc60e24310173d979bd53818701527f0fb84d242b096873f6f292c35d22d14f0b1ee3390542fdbe56257f17b4f31f2b8352600160c4356080880198818a525f516020611b2b5f395f51905f5284808b016060828d0160075afa92101616828860808160065afa16167f053ef158f34cac51dd997ad04d4710f76b07b4b4cf70e1637d58164f6b47e06f828801527f06b43fddfa8cb29417f9109da64c1875b8b2503a539e5a2ee1381ff40359228f845260e435908189525f516020611b2b5f395f51905f5283808a016060828c0160075afa92101616818760808160065afa167f216331ae90f74ba87032e90005bb94715dcb9726482a80d6bc795c6be9183b1b828801527f0dec6faac2bc3f692c33b0743c96257f7c7bbf60ea10f31005a7aa2d17cfac55845261010435908189525f516020611b2b5f395f51905f5283808a016060828c0160075afa92101616818760808160065afa167f1647346e2176160420b49a409059225dec433eab7249bb018ad84182cbdf71ec828801527f1c1f123b0faf9f3ad0e7fac0c98fe90dae5a7ff331cf73c547eda1c2ee4a2ab3845261012435908189525f516020611b2b5f395f51905f5283808a016060828c0160075afa92101616818760808160065afa167f22b9920dc31273977a34876de223438bb7b9cf998c2f2a20830135c5e8968bac828801527f2802e5e9551b410b41c658627501988e6cdba9ee3d91a3c41554b216e1374e74845261014435908189525f516020611b2b5f395f51905f5283808a016060828c0160075afa92101616818760808160065afa167f13e23be2d0d10d9d9a522740ff9f16ebf3a640d6457c86893c785ee69d421d16828801527f0545bd05fa0164555981fa368b88770974cc5d0caab416206f9b64720391a2db845261016435908189525f516020611b2b5f395f51905f5283808a016060828c0160075afa92101616818760808160065afa167f24aac08ac31677a9327371e8608c59d80f436a23ce999370854664ba930f4750828801527f0543a83130dc1a1209f562a0e64aee11d3cd5ba73cbec42637eac197c8cea330845261018435908189525f516020611b2b5f395f51905f5283808a016060828c0160075afa92101616818760808160065afa167f06b312c446d4a4b093e93a0365442b9ce68ed2a3ce8f48a535d5eabb4753d3f7828801527e3207319db3da4e43eafc290ca1b0be5c0270532c0e626584c8c5cb31b8c52784526101a435908189525f516020611b2b5f395f51905f5283808a016060828c0160075afa92101616818760808160065afa167f0cc107e0c46d7cc4c9748996de600cca2b69737e6b7d1c1b824b53da79188a92828801527f29538badc1a6e3dc55ea28cc058864befdc57142e5bee37dc12a189aa072bf5184526101c435908189525f516020611b2b5f395f51905f5283808a016060828c0160075afa92101616818760808160065afa1695015252518092525f516020611b2b5f395f51905f528c8b606082808301920160075afa921016168a8960808160065afa16988c89519901519915610a27578b528b8b0152888a01526060890152608088015260a087015260c086015260e08501527f19e805e891035c3e515c4849adb5fc70a193fb55299ff8170f74e49dcce9c0876101008501527f10f5d2fe5800355674050513d6f9ad809fb74252fb668793e697e6a53fe62b1c6101208501527f188c60f6ffbf01fa70d95b24c80e2b3e93ef216f38130959ecfef9e9059160956101408501527f09b6742c38fd756588d401751fc56341a7b04d4eda4818cb614377aaeb5990dc6101608501527f2e06add4f4f5c8e99d198c33e68cb7e94b0eba3abf3c373da956dd06483ca6eb6101808501527f140a14898c366bcccdf13e8d60be7bb3ca08fb0f3cdab1762539618892efa9576101a08501527f14b2c0b679a7bf23f61db0ce848885b1d23bb2a20587b2f708d33817c97095246101c08501527f2560c8068242f8b26bb0917ded1a3491b359f163a15ffd74590cf51d3de9f6da6101e08501527f0982914d4f35129270478f9f66594c2d5ce0ef86762b78bcedc7e468972cdd6c6102008501527f093050fb59cbb7712fe1cd41a3fd7443cac3da58cee330cb04314be4b24b67c96102208501526102408401526102608301527f24e375ab5edde07add353aabc9bfb17724014824072d0f13c44eae1c43693a4f6102808301527f09bdd0ee79664950b6b6a5c03495fa53f1628caaf1b6ee06e5eea7372278026c6102a08301527f1e69e4e8b120f69492993e4788222fd7faf8c8796e162b91f044f828d61fd1396102c08301527f2ceb6098ad916f7b32289d408e7854ae887df3067670baa27c2611d5e19b86fc6102e08301525192839161141f8484611444565b8336843760085afa15908115611437575b50610a1857005b6001915051141581611430565b90601f8019910116810190811067ffffffffffffffff82111761146657604052565b634e487b7160e01b5f52604160045260245ffd5b909160409282526020820152016060516080905f5b81811061149c5750505090565b825184526020938401939092019160010161148f565b8015611516578060011c915f516020611b0b5f395f51905f52831015610a18576001806114f55f516020611b0b5f395f51905f526003818881818009090861192b565b9316146114fe57565b905f516020611b0b5f395f51905f5280910681030690565b505f905f90565b80158061164e575b611642578060021c92825f516020611b0b5f395f51905f52851080159061162b575b610a185784815f516020611b0b5f395f51905f5280808080808080807f30644e72e131a029b85045b68181585d97816a916871ca8d3c208c16d87cfd44816115f59d8d0909998a0981898181800909087f2fcd3ac2a640a154eb23960892a85a68f031ca0c8344b23a577dcf1052b9e7750806810306936002808a16149509818a8181800909087f2b149d40ceb8aaae81be18991be06ac3b5b4c5e559dbefa33267e6dc24a138e50861194e565b80929160018082961614611607575050565b5f516020611b0b5f395f51905f528093945080929550809106810306930681030690565b505f516020611b0b5f395f51905f52811015611547565b50505f905f905f905f90565b508115611525565b905f516020611b0b5f395f51905f5282108015906116e0575b610a18578115806116d8575b6116d25761169f5f516020611b0b5f395f51905f526003818581818009090861192b565b8181036116ae57505060011b90565b5f516020611b0b5f395f51905f52809106810306145f14610a1857600190811b1790565b50505f90565b50801561167b565b505f516020611b0b5f395f51905f5281101561166f565b919093925f516020611b0b5f395f51905f528310801590611914575b80156118fd575b80156118e6575b610a185780828685171717156118db5790829161183e5f516020611b0b5f395f51905f5280808080888180808f9d7f30644e72e131a029b85045b68181585d97816a916871ca8d3c208c16d87cfd448f839290839109099d8e0981848181800909087f2b149d40ceb8aaae81be18991be06ac3b5b4c5e559dbefa33267e6dc24a138e5089a09818c8181800909087f2fcd3ac2a640a154eb23960892a85a68f031ca0c8344b23a577dcf1052b9e7750806810306945f516020611b0b5f395f51905f527f183227397098d014dc2822db40c0ac2ecbc0b548b438e5469e10460b6c3e7ea48161181881808b8009818780090861192b565b8408095f516020611b0b5f395f51905f5261183282611aa2565b8009141595869161194e565b9290808214806118d2575b156118705750505050905f146118685760ff60025b169060021b179190565b60ff5f61185e565b5f516020611b0b5f395f51905f528091068103061491826118b3575b505015610a1857600191156118ab5760ff60025b169060021b17179190565b60ff5f6118a0565b5f516020611b0b5f395f51905f52919250819006810306145f8061188c565b50838314611849565b50505090505f905f90565b505f516020611b0b5f395f51905f52811015611721565b505f516020611b0b5f395f51905f5282101561171a565b505f516020611b0b5f395f51905f52851015611713565b9061193582611aa2565b915f516020611b0b5f395f51905f5283800903610a1857565b915f516020611b0b5f395f51905f527f183227397098d014dc2822db40c0ac2ecbc0b548b438e5469e10460b6c3e7ea4816119a69396949661199882808a8009818a80090861192b565b90611a96575b86080961192b565b925f516020611b0b5f395f51905f52600285096040519060208252602080830152602060408301528060608301527f30644e72e131a029b85045b68181585d97816a916871ca8d3c208c16d87cfd4560808301525f516020611b0b5f395f51905f5260a083015260208260c08160055afa91519115610a18575f516020611b0b5f395f51905f52826001920903610a18575f516020611b0b5f395f51905f52908209925f516020611b0b5f395f51905f528080808780090681030681878009081490811591611a77575b50610a1857565b90505f516020611b0b5f395f51905f528084860960020914155f611a70565b8180910681030661199e565b9060405191602083526020808401526020604084015260608301527f0c19139cb84c680a6e14116da060561765e05aa45a1c72a34f082305b61f3f5260808301525f516020611b0b5f395f51905f5260a083015260208260c08160055afa91519115610a185756fe30644e72e131a029b85045b68181585d97816a916871ca8d3c208c16d87cfd4730644e72e131a029b85045b68181585d2833e84879b9709143e1f593f0000001a2646970667358221220fbcd96a98151831cfdc5f32bc61097c9b98a51487ef69bba69804a61eb86c0cf64736f6c634300081c0033",
  "linkReferences": {},
  "deployedLinkReferences": {}
}